:020000040800F2
:10000000B0050020D93600085B1200080B15000867
:1000100000000000000000000000000000000000E0
:100020000000000000000000000000005F15000854
:100030000000000000000000EB180008F93600087E
:10004000EF180008F3200008333600083F36000898
:100050001F3700082137000823370008253700081C
:100060000000000027370008293700082B37000858
:100070002D3700082F3700083137000833370008C4
:100080003537000800000000000000003737000886
:1000900000000000393700083B3700083D370008F2
:1000A000000000003F370008000000004137000852
:1000B000F0B5A5B004000D002A9E00BF73A003C8D0
:1000C0006F4603C7089506A83B21465400201190AF
:1000D00004940392029313E0039C3500049F21785B
:1000E0000898B8470890002800D1B6E01198401C45
:1000F0001190641C6D1EF2D104970398801903902F
:1001000003980078252809D100260B960C960D96A9
:100110000E960F9610960021039C0FE06A46002170
:10012000C943039801F03AF8060001D1119896E00E
:10013000D2D50126E1E7080001210143641C2078A3
:100140002028F8D023280CD02B2804D02D2805D027
:10015000302809D085E008000221EEE708000421DC
:10016000EBE708000821E8E708001021E5E713960F
:100170000AE0139A444B9A4205DA93009A18520007
:10018000101830381390641C20780200303A0A2A84
:10019000EFD320782E2803D00020C043129028E00F
:1001A000641C20782A280AD102980068029A1060FC
:1001B0000268001D029B18601292641C19E02D2831
:1001C00002D12D22641C00E0002212960CE0002ACD
:1001D00009D1129B2C4DAB4205DA9D00EB185B0058
:1001E000181830381290641C20780300303B0A2B1A
:1001F000EDD306AD29872778390000BF25A000F090
:10020000DFFF002801D0641C00E000273A202F54B3
:10021000285C682804D1207868280AD1622005E08B
:100220006C2806D120786C2803D171203A216854BB
:10023000641C16A80A902378029A06A9049800F074
:1002400067F8611C0391002807D116AA06A9049833
:1002500000F0F8F9002800D452E70020C04325B090
:10026000F0BD2A2883D10298026802601068121D2E
:10027000029B1A601390002804D542421392080092
:1002800004210143641C84E7CBCCCC0C00000000AB
:1002900000000000686A6C747A4C00000B00622851
:1002A0001CD068280DD06A2803D06C2823D0712870
:1002B00021D11A68D21D072082431A6003CA1A602E
:1002C0007047002A19681960086803D0091D196071
:1002D00000B217E0091D196080B217E0002A196802
:1002E0001960086803D0091D196040B20AE0091DB1
:1002F0001960C0B20AE0002A19681960086803D0C2
:10030000091D1960C1177047091D19600021704748
:100310007CB50C0011001E0025693200253A00D181
:100320004AE11C3A00D182E0121F022A00D87EE086
:100330000E3A00D104E1521F58D0093A77D0921EEC
:1003400016D0521E34D0521E022A70D9121F2FD03E
:10035000521F00D194E0521E48D0521E00D1DEE060
:10036000D21E00D1FAE0921E40D0D21E3ED029E12A
:100370003A22A25C6C2A09D06069421C62610A6858
:100380000A601368121D0A602B5425E10A680A608E
:100390001368121D0A60009300210191C943216373
:1003A0006A46210000F0D0F9002800D414E100E1F1
:1003B00001223A20205CFFF771FF03C4083C0029AA
:1003C00004DA6069411C61612D210DE0208F8107F5
:1003D00004D56069411C61612B2105E0C00721D56E
:1003E0006069411C6161202129541BE000223A20F0
:1003F000205CFFF753FF03C4083C3820205C000753
:1004000010D503CC083C002901D100280AD02020B7
:100410003043782806D1606930212954401C411CA2
:1004200061612E5460692818E060310084E008683A
:10043000C01D0722904308600CC808600CC4083C2B
:1004400003CC083CC80F04D06069411C61612D21B8
:100450000DE0208F810704D56069411C61612B216B
:1004600005E0C00704D56069411C61612021295461
:1004700060692818E0603100200000F083FAABE0EA
:100480003B20205C002803D00024E44353A074E008
:100490003A20205C622808D0682823D06A2812D02D
:1004A0006C282ED071280ED02BE00A680A601068E4
:1004B000121D0A60002803D10024E4434DA05CE033
:1004C000E16A017088E0086808600268001D086041
:1004D000002A03D10024E44346A04EE0E06AC1179D
:1004E00003C279E00A680A601068121D0A600028D9
:1004F00004D10024E44300BF3EA03EE0E16A018055
:100500006AE00A680A601068121D0A60002803D1B8
:100510000024E44337A030E0E16A01605CE0086851
:1005200008600268001D08600020C04300211040E0
:1005300003C4083CE5607821200000F06BF94BE033
:100540006C223A23E2540B680B601A681B1D0B6087
:10055000002A29D10024E4432CA00EE03A22A25C18
:100560006C2AF0D0086808600568001D0860E56026
:10057000002D06D10024E4432BA000F031FE201A08
:1005800076BD266B002E03D5280000F04DFE09E055
:1005900032000021280000F04FFE002801D0401B4F
:1005A00000E03000A06117E0210000F0CDF8002845
:1005B00012D50020C04376BD6069411C61612521D0
:1005C000295409E06169481C606125226A543100A0
:1005D00002D0411C61612E54002076BD7072696E9C
:1005E00074665F733A20256E20646973616C6C6F6A
:1005F000776564007072696E74663A206261642087
:10060000256E20617267756D656E74007072696E1B
:1006100074665F733A2062616420256C7320617296
:1006200067756D656E7400007072696E74665F73D5
:100630003A2062616420257320617267756D656E72
:1006400074000000F8B506000C001700606B6169CB
:10065000401A216A401AA169401A616A401AE16988
:10066000401AA16A401A00903820205C40070ED43E
:10067000009800280BDD05462021A068B047A06047
:1006800000285DD0E06A401CE0626D1EF4D13A00A3
:1006900063692100300000F0F3FC002850D1256A86
:1006A000002D0ADD3021A068B047A060002847D0A7
:1006B000E06A401CE0626D1EF4D1A369E26821008B
:1006C000300000F0DDFC00283AD1656A002D0ADD1B
:1006D0003021A068B047A060002831D0E06A401CFB
:1006E000E0626D1EF4D1E369E068A169421821005F
:1006F000300000F0C5FC002822D1A56A002D0ADDDB
:100700003021A068B047A060002819D0E06A401CE2
:10071000E0626D1EF4D13820205C40070ED50098B1
:1007200000280BDD05462021A068B047A060002806
:1007300006D0E06A401CE0626D1EF4D10020F2BDDC
:100740000020C043F2BD0000F0B5A7B004000D00CA
:1007500016002F6B002F00D5874F00F079FD696BD5
:100760000A1800BF29A003C804AB03C3812A4AD2D8
:1007700000200694009503900024002F32DD04AA87
:10078000316801A800F00FFD05003CD43068002856
:1007900001D16D1E37D4AF4224DB00984069401967
:1007A00081280BD30098446307AA00990698FFF7A5
:1007B00049FF0390002815D40098446100984069CF
:1007C00002902A0001A907A8029BC01800F046FD6C
:1007D00002984019009948613068002802D0361DFF
:1007E0007F1BCAE7069B009C0398002804D107AA38
:1007F00021001800FFF726FF002802D100216161C7
:10080000616327B0F0BD0020C043FAE7000000009C
:1008100000000000F2B586B0040025696F2901D1FF
:10082000082707E0084620210143782901D00A273C
:1008300000E010273C2603CC083C04AA03C26A4609
:10084000127E642A03D06A46127E692A09D10029E1
:1008500007DA04A803C800220023121A8B4104A857
:100860000CC004A803C8002920D100281ED1206B89
:1008700000281BD1082F4ED13820205C00074AD514
:100880003B26302046E000290ED53821615C142239
:100890000A40102A08D1616B6269891A226A891A92
:1008A000081A002800DD206207B0F0BD0294009510
:1008B00004A830C8761E0196200029003A00FB17D4
:1008C00000F0FAFC3032D0B23A2803DB6846007EF2
:1008D0005138121800988255200029003A00FB1761
:1008E00000F0EAFC04000D0001D1002C05D00298B4
:1008F000C068009989198842DCD3029C009D082FAA
:1009000009D13820205C000705D5A85D302802D029
:10091000761E3020A8553C20801BA061A919E160FB
:10092000216B8842AFDA081A2062208F13490140F8
:100930002187B9E7F8B50026114F04000D00009299
:1009400014E0C00707D532003B002000290000F06A
:10095000E8FC04000D0000984010009030003900C1
:1009600032003B0000F0DDFC06000F00009800287C
:10097000E7D120002900F4BDFFFFFF7FEFFF00005B
:1009800000002440F3B593B005AA03C802AB03C32B
:1009900014A80078202101436846017061290BD01A
:1009A0001398006B002801D5062003E004D16729C5
:1009B00002D1012013990863139803C84C006415F1
:1009C000641C13D10B0311D003201399886114A860
:1009D000007861381A2804D255497944FF315331DF
:1009E00016E054497944FF314D3111E04C00641553
:1009F000641C13D10B0311D103201399886114A82F
:100A0000007861381A281BD34B497944FF312B31C8
:100A100003221398C06800F021FCCCE110AB03C3A3
:100A200091A6C0CE10A803C8394080256D03A94205
:100A30000BD20023019310AB30CB604069400EE035
:100A40003E497944FF310939E2E7080D884C241802
:100A5000019410A803C8884D0D4086492943139B73
:100A600003C368460078612813D11398C068302109
:100A70000170811C139BD96014A90978612901D1E7
:100A8000782100E05821417013984069801C139927
:100A90004861139830C826402F4005D1002E03D15D
:100AA00000206B4618817DE168460078612800D0FF
:100AB000A8E01398006B002801D5212000E0401C1D
:100AC0000090009F7F1C02A803C80022002300F0B2
:100AD000EAFC02D28020000645400198001F0190E8
:100AE00069460A7505A8461C002F00DC69E1200054
:100AF0002900002280235B0300F0EEFC00D960E1B6
:100B000069004A0D11001C31002A19D0002917DD97
:100B1000B74A914206DB10052900802212061140D7
:100B2000014311E0544A2A400805104305000DE036
:100B3000982B0000982B00009C2B0000942B0000A9
:100B4000290080221206114000240D0020002900F7
:100B500000F0DCFC0290FF1F002F09DD00F010FD0B
:100B600002000B002000290000F071FD04000D00C0
:100B7000F01D0721029A04E0401E13071B0F0370AB
:100B80001211002A01DD491EF6D5491E00D514E1D7
:100B9000401E00220270F8E70023040005AD2D1965
:100BA00001E0401E6D1E641E2E789E42F9D00F2B70
:100BB00004D14B1C1B5D5B1C491C0B55002C04D540
:100BC00005AA401C0199091D0191431E11D4D41896
:100BD00014A9097825783035EEB23A2E02DB0E00E2
:100BE0003A3EAD1925705B1E641E002BF2D514AB86
:100BF00019701399096B002900D4D0E0411E139B92
:100C00001963CCE002A803C80022002300F04BFCCB
:100C100006D202A803C880221206514002AA03C2CB
:100C2000019874494843744900F09EFD01900720E3
:100C30000199401A049005DD024602A803C8FFF797
:100C400079FE0AE0424200206C49FFF773FE020081
:100C50000B0002A803C800F0E1FD6A461278662A7C
:100C60000CD1019A0A320AE0FFFFFFFFFFFFFF7F6E
:100C700002FCFFFF0000E03FFFFF0F800622139BF6
:100C80001B6B9A18142A00DD142230236C4623753E
:100C900005AB5C1C02E002A803C8049A002A3CDDF4
:100CA00002AB03C3049202A803C800F041FC0F90FA
:100CB00006460834042530000A2100F058FD0F00D4
:100CC00030000A2100F053FD06003037601E077027
:100CD00030000A2100F04BFD0F0030000A2100F027
:100CE00046FD0600A41E303727706D1EE3D1083480
:100CF0000498083804900028CDDD0F9800F030FCEF
:100D000002000B0002A803C800F0A1FC00223C4B2B
:100D100000F007FB02AA03C2C5E705A8401C211A80
:100D200005A8421C019802E0491E401E521C13787F
:100D3000302BF9D0019068460078662802D10198DE
:100D4000401C06E068460078652801D1012000E0DB
:100D50000020139B1B6B1818814200DA481E0028E4
:100D60001DD4884204DA115C352901DB392300E007
:100D700030230400511E0D1901E0401E6D1E641E3B
:100D80002E789E42F9D0392B02D1135D5B1C13558E
:100D9000002C04D50A00401C0199491C01916946A8
:100DA0000881019800B20090029B1BB214A8017840
:100DB000139800F027F815B0F0BDC61D002F00DD18
:100DC00095E605A9481C331A05A8421C00988342E1
:100DD00000DC1800002800D50BE7984200DBDBE6BA
:100DE0004B1C1B5C072B00DCD6E60F23D5E600006E
:100DF000FF07000097750000A08601000000F03F8B
:100E000084D79741F6B583B006000F001C0000F0B0
:100E1000D0F9406A007869460870356B002C03DC15
:100E2000012400BFA3A0049020203843662803D1EA
:100E30000A9F3FB27F1C1AE0672800D085E00A981D
:100E400000B20321C943884200DA82E0A84200DBF5
:100E50007FE00A9F3FB27F1C3820305C000702D43D
:100E6000AC4200DA250038B22D1A00D50025B16950
:100E7000F06840183AB2002A26DC491C3022027081
:100E8000002D03DC3820305C000704D5684600786C
:100E9000F2685054491CB16138B241428D4200DAC7
:100EA0006F423FB278427062ED19A54200DA2C0021
:100EB00024B2F46122000499F068B369C01800F00C
:100EC000CDF9281BB062C3E0944218DA22000499DD
:100ED00000F0C4F9B0690019B0613FB2391B71620A
:100EE000002D03DC3821715C090706D569460978B5
:100EF000F2681154F069401CF061B562A8E00499F1
:100F000000F0ACF938B2B1690918E41B002D03DC1C
:100F10003822B25C120704D56A461278F3685A5434
:100F2000491CB16121B28D4200DA2C0022B2049931
:100F30000918F068B369C01800F090F924B2B069DC
:100F40000019B061281B706282E0612F11D17027F7
:100F500012E0AC4204DA3821715C090700D42500A4
:100F60006D1E00D50025672F01D1652704E04527B8
:100F700002E0412F00D15027B069411CB161049AB1
:100F80001278F3681A540498401C0490002D03DC76
:100F90003820305C000718D5481CB0616A461278CA
:100FA000F3685A54002D10DD641E21B28D4200DA20
:100FB0002C0022B20499F368181800F04FF924B2FB
:100FC000B0690019B061281B7062F068B1694018FF
:100FD00007700A9909B2002904D42B214170801CA2
:100FE000049006E02D224270801C0490484269461D
:100FF000088500246D460A9800B205E00A2100F039
:10100000B3FB2970641C6D1C00B20028F6DC012CB7
:1010100009DC20203843652805D130200499087068
:101020000498401C0490002C28D1302004990870AA
:101030000498401C07E0641E6946095D3031017068
:10104000401C002CF7DCF168B2698918401AF06185
:101050003820305C1421014010290DD17069B1692C
:101060004018716A4018F1694018B16A4018716BF4
:10107000884201DA081A306205B0F0BD0498E0E752
:10108000F8B50024002B13D007000E0014001D003B
:101090002178B068B847B060002807D0F06A401CDB
:1010A000F062641C6D1EF3D1002401E00024E443CF
:1010B0002000F2BD3000F1B40168421841684808D0
:1010C000131800988068C9071ED5494640181BE0D0
:1010D0001778521C0770401C761EF9D1002C13D0D3
:1010E0001678521C89080D40032D01D11578521C29
:1010F000290271184D424119A41C05D00D78491CD4
:101100000570401C641EF9D19A420FD01178521C10
:10111000032503260E4002D11678F61C521C0C093A
:101120000F2CD9D114780F34521CD5E700980C300D
:10113000F2BC70472048704730B45368D418042B71
:101140000BDA002909D0057825700578002D04D028
:101150005B1C491E641C401CF1E7536030BC7047A7
:1011600038B500290ED01D001400FFF7E5FF6168B7
:1011700020006A6B90470122D243811A02D0491E97
:1011800002D004E0012000E00020C04332BD002175
:10119000616032BD80B5DA6B904702BD80B5064B09
:1011A000FFF7DEFF02BD80B5034BFFF7F3FF02BD83
:1011B00000000248704700003C00002004000020AE
:1011C00000BFC9B200E0401C02788A4202D0002A67
:1011D000F9D1002070470268531C036011707047FA
:1011E00080B5002801D100BF07A006490B68002B7D
:1011F00003D022220021984701E000F070FB22205A
:1012000002BD0000A8010020636F6E7374726169F3
:101210006E742068616E646C65723A20626164204D
:101220006D65737361676500010000E0491C0A7811
:10123000002AFBD1081A7047C9B201E0401C521EB7
:10124000002A03D003788B42F8D170470020704702
:1012500080B5FFF76FFF006C02BDFEE7124207D0BA
:101260008B0706D00B78491C0370401C521EF7D820
:101270007047830706D00B78491C0370401C521E30
:10128000F9D1704770B4103A03D378C9103A78C0D6
:10129000FBD2530701D318C918C001D508C908C02B
:1012A000D20704D30B880380891C801C002A01D537
:1012B0000B78037070BC7047124224D0994228D931
:1012C00070B500251B4202D00C00002109E000246B
:1012D000012649186441944200D3A41A7641F8D3F8
:1012E0003100012601E0764109D2001864416D41C8
:1012F000A41A9D41F7D2A4185D41B619F5D3300068
:1013000022002B0070BD1B42D8D108B500F0ECFACA
:1013100008BD01D19042D3D202000B000021002071
:101320007047F0B50E005E400125ED072E40B44633
:10133000AE0ADF184C18F44208D2F7420ED2640D00
:1013400001D07F0D12D100206146F0BD05D1F742DA
:1013500001D87F0D05D10020C143F0BDFBD1640D44
:10136000F9D00020C143490549088FE0E419C902BA
:10137000DB0229432B43DB0A460DC00231438E4674
:1013800030B487B295B27D432E0CADB2140C7C43C1
:10139000A419260C240425439CB27C43A419190CDF
:1013A0007943270CC919A4B20F043C43090C000C63
:1013B00097B247432E0CBE193543ADB2170C4743C5
:1013C000360CBF19A6B2BF193E043543240C3E0C9F
:1013D00036199FB24743BF19BCB23E0C89191F0C86
:1013E00047437F183E043443390C704680B297B2AD
:1013F00047432E0CBE193543ADB2170C4743360C8C
:10140000BF19A6B2BF193E043543240C3E0C361951
:101410009FB24743BF19BCB23E0C89191F0C47430A
:101420007F183E043443390C77463F0C90B2784322
:101430002E0C80190604ADB22E43050CA0B22D1857
:10144000120C7A435019020C80B2240CA4189AB2E0
:101450007A43121914042043120C89181B0C7B4385
:10146000C91830BCEF0A394203D1B619404149418D
:10147000641E6F12BF0DE41B0BDBFF19BC4211DAB7
:10148000240500274208AE41784161416646314358
:10149000F0BD641C05D1401C6141CF0201D3490855
:1014A000F4E750E75DE730B4012464054D00EC42F9
:1014B0000BD85D00EC4208D80C001C4364000443C8
:1014C000144304D2994200D1904230BC7047FCD002
:1014D0008B42FAD18242F8E730B4012464054D0012
:1014E000EC420BD85D00EC4208D80C001C436400B1
:1014F0000443144304D28B4200D1824230BC704773
:10150000FCD09942FAD19042F8E7FEE7F4464A1837
:1015100005D200F00FF801D580174008604700F0B1
:1015200009F80121C907884200D9080040426047F4
:101530004A1812D2400DC90208430121C9070843C5
:10154000520D40210901521A521C06D452421F3238
:1015500001D4D0407047C017704700207047FEE7A5
:10156000010042221201D21E004207D002D4521EB4
:101570000018FCD5C10A4005120589187047000003
:101580000100EED54042F446FFF7EBFF0122D207FF
:10159000114360478B4200D1824205D98446100036
:1015A00062468C4619006346DF184C18640D7F0DA7
:1015B0003AD0661C760537D0E61B352E34DCDB02CC
:1015C0002B43DB0A0C0DC9022943C912202E0DDB67
:1015D0001700203E06D01F00F741F3405F40002671
:1015E000012A7741C01871410DD217E01700F74169
:1015F000F2405740F3415A40B340F3405A4000266E
:10160000801859410AD3A21C52050FD0C207012FDE
:10161000724117004008CB0718434908641C240591
:101620004208AF4170416141F0BC7047641C210524
:101630000020F9E76B4010E06B40ABE7F742F3D1D5
:10164000E943F1E72442EFD100200021ECE7F0B4B8
:101650000125ED070F005F40EED40C00871A9C4176
:1016600005D2C01BA141D219634169406B40AE0A4B
:10167000DF184C18F442E1D2640D7F0DE2D0E61B76
:10168000362ED1DCDB022B43DB0AA4460C0DC9024B
:101690002943C90A012E28DC04D1D6075208DF07E6
:1016A0003A435B08EF0A76429041994114D039429F
:1016B0003BD1B61940414941761C394204D1761CD0
:1016C000001849413942FAD0B9436746B74208D9B0
:1016D000A41B24052143A7E70042EAD13642E8D102
:1016E000A2E7E40AE10700209EE7202E0BDD203E62
:1016F0001F00F340F7415F40012A002257417E421C
:10170000984191410BE01700F741F2405740F341F7
:101710005A40B340F3405A407E42904199410A03F7
:1017200003D2641EB619404149410027641E2405B6
:101730004208AE4178416141F0BC7047F446002850
:1017400004D4494200F013F8404260474042002967
:1017500005D45FD000F00BF840424942604749424F
:1017600000F005F84942604703460B43E6D40022E7
:10177000030A8B420BD203098B4219D243088B42D6
:101780002ED2411A00D20146524110467047FF2224
:1017900009023FD012068B4205D3121209028B4276
:1017A00001D31212090203098B4219D300E0090A7E
:1017B000C3098B4201D3CB01C01A524183098B422A
:1017C00001D38B01C01A524143098B4201D34B0113
:1017D000C01A524103098B4201D30B01C01A524176
:1017E000C3088B4201D3CB00C01A524183088B42FD
:1017F00001D38B00C01A524143088B4201D34B00E6
:10180000C01A5241884200D3401A5241CFD20146F9
:101810001046704708B500F069F808BDF0B40E0036
:101820005E400125ED072E40B446AE0ADF184C1885
:10183000F4423BD2F74241D2640D43D07F0D38D001
:10184000E41BC902DB0229432B43CF0ADB0A060053
:10185000B61A9F4104D2641EB6197F41B6185F4183
:101860006812800D24180018844222DAE80C002146
:10187000B6197F41B61A9F4102D2B6185F413F1C8C
:1018800040414941F4D3241C21DD2405B6197F4190
:10189000B61A9F4105D33743C60737430026012FA9
:1018A0007041614166463143F0BC7047FCD1F7425C
:1018B00005D20020C14349054908F3E704D00020C0
:1018C000C143F1E77F0DFAD000206146ECE72442E6
:1018D000FAD1401C61410F03F6D30020E2E780B546
:1018E000012000F005F801BD7047FEE77047FEE7F4
:1018F00080B500BF00BF024A11001820ABBEFBE755
:1019000026000200FEB5040000252078C00763D53C
:101910000C20B3490A680240042A06D00A68104025
:1019200008280BD10868C00308D5AE4800688003BA
:1019300052D5606800284FD1012010E2606801286C
:1019400006D1A8480168802252020A43026024E0BE
:101950006068002809D1A3480168A34A0A400260D0
:101960000168A24A0A40026017E0606805280BD1AE
:101970009C4801688022D2020A43026001688022EA
:1019800052020A43026008E096480168964A0A40FB
:1019900002600168954A0A400260606800280DD024
:1019A00000F002FB05008F480068800314D400F0AB
:1019B000FBFA401B6528F6D30320D0E100F0F4FACF
:1019C000050088480068800306D500F0EDFA401B4A
:1019D0006528F6D30320C2E10226206830400028A3
:1019E0004FD00C207E490A680240002A06D00A68BF
:1019F0001040082814D10868C00311D47948016840
:101A00003140002904D0E168012901D00120A6E17C
:101A10000168F82291432269D2000A43026030E053
:101A2000E06800281AD06F4F3868012101433960FF
:101A300000F0BAFA050038683040002806D100F0FE
:101A4000B3FA401B0328F6D3032088E13868F82155
:101A500088432169C9000143396012E0614F386849
:101A600001218843386000F09FFA05003868304053
:101A7000002806D000F098FA401B0328F6D3032074
:101A80006DE12078000728D5E069002812D0B44F16
:101A9000386801210143396000F086FA0500386892
:101AA0003040002819D100F07FFA401B0328F6D3FC
:101AB000032054E1AA4F386801218843386000F0C0
:101AC00073FA050038683040002806D000F06CFA40
:101AD000401B0328F6D3032041E104272068384047
:101AE000002800D18DE00020694608708020400564
:101AF0009C490968014000290AD19A490A680243B1
:101B00000A60096808400190019801206946087040
:101B100095480068C00514D49348006880214900A6
:101B200001439148016000F03FFA05008E480068CB
:101B3000C00506D400F038FA401B6528F6D3032010
:101B40000DE1A068012805D18848016801220A43F7
:101B5000026021E0A068002809D1844801680122C0
:101B600091430160016804229143016014E0A06880
:101B7000052808D17D4801683943016001680122C8
:101B80000A43026008E0794801680122914301603C
:101B90000168042291430160A06800280FD000F082
:101BA00003FA0500714800683040002820D100F099
:101BB000FBF9401B6E498842F4D30320CFE000F0CC
:101BC000F3F90500694800683040002810D000F0A3
:101BD000EBF9401B66498842F4D30320BFE000BF05
:101BE0000410024000100240FFFFFEFFFFFFFBFF5A
:101BF00068460078012804D15A4801685D4A0A40C5
:101C000002602078C00650D56069012822D1AF4813
:101C100000680743AD480760AC48006801210143F4
:101C2000AA48016000F0C0F90500A84800683040EB
:101C3000002806D100F0B8F9401B0328F5D3032093
:101C40008DE0A2480168F8229143A269D2000A43BC
:101C500002602AE00421C943606988420BD19B4895
:101C60000268114001600168F8229143A269D20024
:101C70000A43026019E095480068074393480760EB
:101C800092480068012188439049086000F08CF96F
:101C900005008E4800683040002806D000F084F926
:101CA000401B0328F5D3032059E0206A002855D0B3
:101CB000874800680C21014008294DD0206A02287D
:101CC00038D1844F3868A5490140396000F06CF97B
:101CD00000908026B60438683040002807D000F015
:101CE00063F90099401A0328F3D3032037E07A48B8
:101CF00001680F229143E26A0A4302607448016856
:101D0000934A0A40A16A1143626A0A430260386832
:101D1000802149040143396000F046F90500386824
:101D2000304000281AD100F03FF9401B0328F6D3B9
:101D3000032014E0674E306888490140316000F0AC
:101D400033F905003068800108D500F02DF9401BFB
:101D50000328F7D3032002E0012000E00020FEBDAD
:101D6000241002401C10024000700040201002406D
:101D700089130000FFFFFFEFF3B581B004000020DE
:101D8000009001257C4E30682840029988420CD290
:101D9000306801218843029901433160306828404E
:101DA0000299884201D001208EE002202168014082
:101DB000002906D046490A68F0239A43A3681343D2
:101DC0000B6021682940002952D06168012905D1A2
:101DD00040480068800311D4012075E06168022941
:101DE00005D13C480068800108D401206CE03949E5
:101DF00009680840002801D1012065E0344F3868A7
:101E00000321884361680143396000F0CDF80090F8
:101E1000606801280DD138680C210140042927D0C1
:101E200000F0C2F80099401A54498842F3D30320C5
:101E30004AE0606802280DD138680C210140082969
:101E400016D000F0B1F80099401A4C498842F3D3FB
:101E5000032039E038680C210140002908D000F047
:101E6000A3F80099401A45498842F3D303202BE098
:101E700002983168294088420CD230680121884399
:101E8000029901433160306805400298854201D0D3
:101E9000012019E02078400706D50D480168384A2E
:101EA0000A40E1681143016000F018F83549084A1A
:101EB000126812091207120F895CC8403249086083
:101EC000002000F077F80020FEBD00003410024032
:101ED00004100240001002402C100240F0B589B0FE
:101EE00005A82A491022FFF7CDF901A82849102298
:101EF000FFF7C8F90024200000942500260025499A
:101F00000F680C213940042902D0082902D01BE0B7
:101F100021481AE00F2005A9BA0C0240895C0E0086
:101F200001A91E4A12681040085C0090F80306D50B
:101F300019480099FFF71BFC7043050002E01848A0
:101F400070430500280000E0134809B0F0BD000010
:101F5000FFFFC2FF0C48006870470000FFFFFFFE54
:101F600080B5FFF7F7FF0F490A4A1268120A5207B5
:101F7000520F895CC84002BD002002408913000056
:101F8000FFF8FFFFB8360008000000209836000870
:101F9000A83600080410024000127A002C100240FB
:101FA00000093D001037000801480068704700BF75
:101FB000A401002010B50400FFF7CCFFFA2189002E
:101FC000FFF7D5FB00F071F8002221000020C0438C
:101FD00000F061F8002010BDF0B5020052B2002AF6
:101FE00023D503220F243B4B05006DB22540083D4D
:101FF000AD0804267543060076B23440083CA408B8
:10200000042674431E59FF27BC46140004400827C9
:102010007C436746A740BE438C01E4B202400827D8
:102020007A43944034435C511BE02B4A0323040061
:1020300064B2A40804256C431459FF251E00064011
:1020400008277E43B540AC438D01EDB2034008261E
:1020500073439D40254303005BB29B080424634304
:10206000D550F0BD10B50400601E8021490488429F
:1020700001D301200EE0601E1849086003210020F2
:10208000C043FFF7A9FF0020154908600720154944
:102090000860002010BD70B505000C00160021007E
:1020A000280040B2FFF798FF70BD10B50400200073
:1020B000FFF7D8FF10BD00B5042805D109490A680B
:1020C000042313430B6004E006490A6804239A437F
:1020D0000A6000BD1CED00E000E400E014E000E058
:1020E00018E000E010E000E080B500F001F801BD6C
:1020F0007047FEE710B50400002C01D101205BE021
:102100004120205C002805D100204021605420009F
:1021100000F031FB24204121605420680068012137
:102120008843216808606068844901402068016133
:10213000834821688968014022689160E16801292B
:1021400006D1A168802212020A4321688A6005E054
:10215000A168842212020A4321688A60E168022988
:1021600003D1802109012268516021684968754ABC
:102170000A4321684A602168C96808402168C8602C
:10218000206961690143A069000208432168C860B1
:10219000E069216A0143206801602068006801212C
:1021A0000143206801600020606420214122A15485
:1021B000206342216054002010BDFEB504000F00D2
:1021C000002500954120205C202800D0B2E040206E
:1021D000205C012801D10220ADE0012040216054A3
:1021E000FFF7E2FE06000096192301228021090272
:1021F000200000F081F9002801D003209BE021207D
:10220000412160541020422160546564019860624D
:102210006846008960856563608DFF280ED9FF20C0
:10222000208580208001009080235B04228DD2B223
:10223000390089B2200000F05BFA0DE0608D208546
:1022400080208001009080239B04228DD2B239002F
:1022500089B2200000F04CFA608D00284AD032008C
:102260000899200000F071F9002806D0606C04285D
:1022700001D101205FE003205DE0606A411C6162E2
:102280000078216888629048618D09186185218DE8
:1022900008182085208D0028DED1608D0028DBD035
:1022A0000096089B00228021200000F025F90028DC
:1022B00001D003203FE0608DFF280DD9FF2020854D
:1022C0000020009080235B04228DD2B2390089B2B5
:1022D000200000F00DFABFE7608D208500200090FF
:1022E00080239B04228DD2B2390089B2200000F0F5
:1022F000FFF9B1E732000899200000F052F90028F8
:1023000006D0606C042801D1012014E0032012E003
:1023100020202168C861216849686C4A0A40216808
:102320004A604121605428004221605440202554D5
:10233000002000E00220FEBD00000000FFFFFFF0D3
:10234000FF7FFFFF00800002FEB504000F000025A4
:1023500000954120205C202800D0B2E04020205C85
:10236000012801D10220ADE0012040216054FFF797
:102370001BFE06000096192301228021090220007D
:1023800000F0BAF8002801D003209BE02220412170
:102390006054102042216054656401986062684670
:1023A000008960856563608DFF280ED9FF20208538
:1023B00090208001009080235B04228DD2B23900EE
:1023C00089B2200000F094F90DE0608D2085902006
:1023D0008001009080239B04228DD2B2390089B203
:1023E000200000F085F9608D00284AD0320008995D
:1023F000200000F0FFF8002806D0606C042801D10E
:1024000001205FE003205DE0606A411C6162216899
:10241000496A01702C48218D09182185618D0818A1
:102420006085208D0028DED1608D0028DBD00096ED
:10243000089B00228021200000F05EF8002801D0D7
:1024400003203FE0608DFF280DD9FF20208500206C
:10245000009080235B04228DD2B2390089B2200023
:1024600000F046F9BFE7608D2085002000908023B2
:102470009B04228DD2B2390089B2200000F038F9D5
:10248000B1E732000899200000F08BF8002806D050
:10249000606C042801D1012014E0032012E0202008
:1024A0002168C86121684968084A0A4021684A6071
:1024B00041216054280042216054402025540020CE
:1024C00000E00220FEBD0000FFFF000000E800FE6B
:1024D00000B501688969890702D500210268916207
:1024E0000121026892690A40002A04D102689269B7
:1024F00011430268916100BDF4B504000F001D0096
:10250000069E206880693840B84201D1012000E071
:10251000002069460978884215D10020C0438542D1
:10252000EFD0002D04D0FFF73FFD801B8542E8D29D
:10253000202041216054002001004222A15440216A
:102540006054032000E00020F2BD70B504000D00CF
:10255000160020688069800721D4320029002000FD
:1025600000F086F8002801D0012019E00020C043C7
:102570008542EED0002D04D0FFF716FD801B85426A
:10258000E7D22020616C0143616441216054002046
:1025900001004222A15440216054032000E00020A9
:1025A00070BDF8B505000E0017002024286880696A
:1025B000204000281CD13A003100280000F058F8D3
:1025C000002801D0012014E0002E04D0FFF7ECFC1D
:1025D000C01B8642E9D2686C2043686441202C54B9
:1025E000002001004222A95440216854032000E049
:1025F0000020F2BDF8B504000D00170020688069C6
:10260000400732D43A002900200000F031F80028B9
:1026100001D001202AE0202620688069304000286F
:1026200012D02068C661206840683D49014020689A
:102630004160002060644121665401004222A1549F
:1026400040216054012011E0002D04D0FFF7ACFCC4
:10265000C01B8542D2D2606C304360644120265456
:10266000002040216054032000E00020F2BD000063
:10267000F4B504000F001025206880692840002868
:1026800034D02026206880693040002815D10020F1
:10269000C0438742F5D0002F05D0FFF785FC009995
:1026A000401A8742EDD241202654002001004222E8
:1026B000A15440216054032019E02068C5612068BE
:1026C000C6612000FFF704FF2068406814490140FC
:1026D00020684160042060644120265400200100ED
:1026E0004222A15440216054012000E00020F2BDAC
:1026F000F0B4049C0025066876680A4F3740BC4653
:102700000E00B6B2B705BF0D1600F6B236043E4352
:102710001E43264367463E4307687E60F0BC704711
:1027200000E800FE009800FC80B5012034490A68EA
:1027300002430A6009680840009000988020400524
:1027400030490A6802430A6009680840009000980E
:10275000002200210420C043FFF79DFC002200213D
:102760000120C043FFF797FC002200210020C04356
:10277000FFF791FC01BD10B586B004002068224926
:10278000884219D1C020C00001901220029001207F
:102790000390032004900420059001A99020C00517
:1027A00000F038F88020800316490A6802430A6066
:1027B000096808400090009806B010BD10B586B0BA
:1027C000040020681149884218D18020C0010C49BA
:1027D0000A6802430A6009680840009000980C48A3
:1027E0000190022002900020039003200490012019
:1027F000059001A99020C00500F00CF806B010BDAE
:10280000181002401C1002400054004000380140E3
:1028100004800000FCB50200002300200190002786
:102820000868D840002800D1ECE0012408682500A1
:102830009D40054001950198002800D1E0E04868DE
:10284000022802D0486812281FD1D80804256843FE
:102850001018066A072000960F25AC461E00064099
:1028600004256E436546B540009EAE43B4460D69EF
:102870001E003040042670438540664635432F00D5
:10288000D808042568431018076216680325B44663
:102890001E00022046432800B0406646864300964C
:1028A0004E682E40B44618000226704366468640A5
:1028B0000098064316604868012808D04868022836
:1028C00005D04868112802D04868122820D197689E
:1028D000BC461F00022047432800B8406746874394
:1028E0000097C86884461F00022047436046B840EE
:1028F000009F3843009000989060576820009840EF
:1029000087434868000920409840384306005660D5
:10291000D768BC461F00022047432800B8406746DE
:10292000874300978F68BC461800022778436746A4
:10293000874000980743D7604868C00060D5324898
:1029400006682643066000682040009000982F48E3
:1029500084469E08042046436046805900900F2616
:10296000B4461E0028003040042670436646864068
:102970000098B0439026F605B24201D1002408E049
:10298000234EB24205D0234CA24201D1022400E0E2
:1029900005241E00354004267543AC4004431B4803
:1029A0009D080426754344511B4D2868019EB04381
:1029B0004E68F60302D50400019820432860174DA5
:1029C0002C68019EB4434E68B60302D52000019CDA
:1029D00004432C60124D2868019EB0434E68F602F5
:1029E00002D504000198204328600E4C2768019D01
:1029F000AF434D68AD0202D53800019F0743276001
:102A00005B1C0DE7F3BD00001810024008000140F8
:102A1000000400480008004800040140040401408C
:102A2000080401400C04014010B50400002C01D141
:102A3000012037E0A0690028FFD16920205C002830
:102A400005D10020682160542000FFF7B7FE242044
:102A5000692160542068006801218843216808606A
:102A6000200000F099F8012801D101201AE0606AE5
:102A7000002802D0200000F05CF9206840680A4974
:102A8000014020684160206880682A2188432168CD
:102A900088602068006801210143206801602000EF
:102AA00000F0BAF910BD0000FFB7FFFFFCB583B01E
:102AB00005000C00002601966920285C202868D1BA
:102AC000002C03D068468089002801D1012061E0F4
:102AD00080277F01A868B84207D12869002804D15F
:102AE0002000C00701D5012054E06820285C01289F
:102AF00001D102204EE0012068216854EE662120B9
:102B000069216854FFF750FA019068468089502186
:102B1000685268468089522168525220285A0028FB
:102B200024D05220285A401E522168520498009006
:102B3000019B00228021280000F0ACF9002801D080
:102B4000032027E0A868B8420BD12869002808D1E3
:102B5000029402980088C005C00D29680885A41C4D
:102B6000DBE7207829680885641CD6E70498009084
:102B7000019B00224021280000F08CF9002801D0A0
:102B8000032007E020206921685468202E5400208B
:102B900000E0022005B0F0BDFEB50400002501955F
:102BA000102001006A46917029006A4611802E00AB
:102BB0002F00A16822690A4363691343E16919433D
:102BC00022681368934A1A400A4323681A602268ED
:102BD0005368AD4A1A40E368134322685360A369FF
:102BE000226A1A43019222689368A84A1A40019BFC
:102BF000134322689360A64A12689207920F002A34
:102C000005D0022A08D005D3032A01D006E006E049
:102C1000022504E0042502E0082500E005008020EC
:102C20000002E169814246D12800C0B2002806D0E6
:102C3000022810D0042817D0082821D02AE0FFF756
:102C40008FF9022148436168490840186168FEF71E
:102C50008EFD060020E060684008A84940186168C1
:102C6000FEF785FD060017E0FFF738F9022148431B
:102C70006168490840186168FEF779FD06000BE0BD
:102C8000606840088021490240186168FEF76FFDC6
:102C9000060001E00120070099483040310089B268
:102CA00049084907490F0143684601806846008882
:102CB0002168C86039E02900C9B2002906D002297C
:102CC00010D0042919D0082923D02CE0FFF748F9A7
:102CD0006168490840186168FEF749FD80B22168C3
:102CE000C86022E060684008864940186168FEF7C5
:102CF0003EFD80B22168C86017E0FFF7EFF8616819
:102D0000490840186168FEF732FD80B22168C8604A
:102D10000BE06168490808186168FEF728FD80B279
:102D20002168C86001E0012007003800C0B2FEBD84
:102D3000000000B52421415CC90707D50168496836
:102D4000714A0A40816A1143026851602421415C42
:102D5000890707D5016849686C4A0A40C16A11436E
:102D6000026851602421415C490707D50168496820
:102D7000674A0A40016B1143026851602421415C9B
:102D8000090707D501684968624A0A40416B114347
:102D9000026851602421415CC90607D50168896831
:102DA0005D4A0A40816B1143026891602421415CB5
:102DB000890607D501688968584A0A40C16B1143E2
:102DC000026891602421415C490614D50168496874
:102DD000534A0A40016C114302685160016C802221
:102DE0005203914207D1016849684E4A0A40416C3A
:102DF0001143026851602421415C090607D501682E
:102E00004968494A0A40816C11430268516000BD1B
:102E100000000000F369FFFFF8B50500002427005B
:102E2000EC66FFF7C1F8060028684049884221D1C6
:102E30002868006800070CD53D4800903300002248
:102E400080218903280000F025F8002801D0032004
:102E500018E02868006840070CD53548009033001A
:102E600000228021C903280000F014F8002801D0B6
:102E7000032007E02020692168546A2168546820F3
:102E80002C540020F2BD0000FFCFFFFFFFF4FFFF36
:102E900030100240F4B504000D001F00069E2068AB
:102EA000C0692840A84201D1012000E00020694605
:102EB0000978884220D10020C0438642EFD0002EFE
:102EC00004D0FFF771F8C01B8642E8D22068006882
:102ED000184901402068016020688068012188430A
:102EE000216888602020692160546A216054002094
:102EF00068216054032000E00020F2BD0024F400AB
:102F0000F0FF000000127A00FFFFFDFFFFFFFEFF51
:102F1000FFFFFBFFFF7FFFFFFFEFFFFFFFDFFFFF75
:102F2000FFFFEFFFFFFF9FFFFFFFF7FF00380140AC
:102F3000FFFFFF015FFEFFFF38B500F0F5F800F07E
:102F400037F800F0C3F800F0A7F800F078F86A4806
:102F5000C06A8047002815D1684C6949200000F0FC
:102F6000F3F82000FEF760F90200664D80235B0154
:102F700092B221002800FFF799FD2868C069400639
:102F8000FBD514E05D4C6049200000F0DDF8200026
:102F9000FEF74AF95B4D80235B01020092B22100EB
:102FA0002800FFF783FD2868C0694006FBD5FEE7CF
:102FB00038B594B00224089401200B9010200C9096
:102FC000109400251195A02080031290139508A855
:102FD000FEF798FC002803D098214C4800F0A2F896
:102FE0000720009001940295039501216846FEF7A1
:102FF000C3FE002803D0A521444800F093F8212007
:1030000004900695079504A800F0BEF8002803D0A8
:10301000AD213E4800F086F8FEF79CFFFA218900BA
:10302000FEF7A5FBFFF741F80420FFF744F8002264
:1030300000210020C043FFF72EF815B030BD10B5B9
:10304000334C34482060344860600020A060012187
:10305000E16020616061A061E06120622000FFF713
:1030600049F8002803D0CB21284800F05BF8002164
:10307000200000F021F9002803D0D221234800F0DD
:1030800051F80021200000F04AF9002803D0D9218E
:103090001E4800F047F810BD80B51A481F4901606E
:1030A000E1214902416000218160C16001610C227F
:1030B00042618161C16101624162FFF7B5FC002894
:1030C00003D0EE21114800F02DF801BD81B0802021
:1030D000C00313490A6802430A600A68104000905E
:1030E0000098802080020A6802430A60096808404C
:1030F0000090009801B0704790350008F40000205F
:103100007836000884000020883600084036000821
:1031100058010020005400400E09002000380140F2
:103120001410024000B5FEE780B506480168102281
:103130000A4302600020FEF73DFFFFF7F5FA00208A
:1031400002BD0000002002400CB418B583B004009A
:103150000A0006A8029001940020009002AB01A989
:10316000084878441E30FCF7A3FF0021019A117033
:10317000002801D40198001B04B0019910BC03B0D1
:10318000084700BF53E0FFFFF8B584B007000020F8
:10319000029001908024640239682140002964D0A3
:1031A00069460870802040053B4D29680140002990
:1031B00009D12968014329602968084003900398D0
:1031C000012069460870354E3068C00512D4306859
:1031D0008021490001433160FEF7E6FE029030682D
:1031E000C00507D4FEF7E0FE0299401A6528F6D321
:1031F00003204FE0C0208000294E3168014001913A
:103200000199002923D001997A68104081421ED08B
:1032100030682449014001913068044334603068CB
:10322000214901403160019830600198C0070ED5F6
:10323000FEF7BAFE02903068800708D4FEF7B4FEAD
:103240000299401A19498842F5D3032022E03068D8
:1032500014490140786808433060684600780128C6
:1032600003D128681249014029603878C00706D583
:103270001048016803229143BA680A430260387813
:10328000800606D50B48016810229143FA680A436C
:103290000260002005B0F0BD1C100240007000402C
:1032A00020100240FFFCFFFFFFFFFEFF891300001C
:1032B000FFFFFFEF3010024010B502004120105C0C
:1032C00020282AD14020105C012801D1022025E0CD
:1032D000012003004024135524234124135513686F
:1032E0001B680124A3431468236013681B68244CE3
:1032F0001C4013681C6013681B680B431468236030
:1033000013681B6818431368186020204123D054A9
:1033100000204023D054002000E0022010BD70B5F2
:103320000200002003004124145D202C26D14024FB
:10333000145D012C01D1022021E00124250040264A
:10334000955524254126955515682D680126B543C8
:103350001668356015682D680A4E2E400D023543FB
:103360001668356016683668344316683460202461
:103370004126945540241055002000E0022070BDE5
:10338000FFEFFFFFFFF0FFFF80B500F00EF86828A9
:1033900001D1012000E0002002BD10B500243A2038
:1033A0004A49C9688847C0B210BD80B575204749F1
:1033B000C9688847C0B202BD10B504006107490F53
:1033C0006B20424A9268904710BD80B51C203F494F
:1033D000C9688847C0B2C008C0B202BD10B50400B9
:1033E000E000182101401C20384A1269904710BDA6
:1033F00080B580216B2000F007F86B2000F049F8C1
:103400008028FAD001BD704770B504000D0020007F
:10341000C0B200F03EF8284306003100C9B22000D7
:10342000C0B200F019F82000C0B200F032F870BD50
:1034300070B504000D002000C0B200F02AF8A843C7
:1034400006003100C9B22000C0B200F005F820002B
:10345000C0B200F01EF870BDF2B582B00700D126F0
:10346000684607711A4CC82000900123684602790B
:10347000310089B22000FEF7A0FED025C8200090C0
:10348000012368460279290089B22000FEF75CFF1B
:10349000F7BDFEB50600D0252F00684606710C4C1E
:1034A000C8200090012301AA390089B22000FEF74C
:1034B00084FEC8200090012301AA290089B22000BF
:1034C000FEF742FF68460079FEBD00009035000817
:1034D000580100201448016801220A430260134980
:1034E0000A68134B13400B600268124B13400360D1
:1034F0000268114B134003600868104A02400A60DA
:103500000F4801680F22914301600E4801680E4A7E
:103510000A4002600D4801680122914301600020C9
:103520000B49086070470000001002400410024080
:103530000CB8FF08FFFFF6FEFFFFFBFFFFFFC0FF19
:103540002C10024030100240ECFEFFFF341002400D
:103550000810024070B40123002413E00168001D2C
:10356000194202D04D466D1E49190C60091D121FEB
:10357000042AFAD20D00960701D50C80AD1C1A4022
:1035800000D02C700268001D002AE7D170BC704783
:1035900007340008F1330008593400089334000858
:1035A0000934000831340008CB330008DD3300084B
:1035B000B9330008AB3300089B3300088933000897
:1035C00010B5074979441831064C7C44163404E0A0
:1035D000081D0A68891888470100A142F8D110BD6A
:1035E00008000000240000006DFFFFFF280100001C
:1035F0008400002000000000BFDAFFFF4601000049
:10360000660000000000002000F00DF8002801D046
:10361000FFF7D6FF00BF00BF002000BF00BFFFF7CD
:103620008BFC00F002F80120704780B500F002F832
:1036300001BDFEE707463846FEF75AF9FBE7FEE70D
:10364000443A5C7A207069645F717561645C53729E
:10365000635C6D61696E2E6300000000FF2902D972
:103660000020C04370470170012070470078401E61
:103670008041C043C00F70470D0A457272206D70C3
:1036800075363035300000000D0A6D7075363035F6
:1036900030206F6B000000000203040506070809D4
:1036A0000A0B0C0D0E0F101001020304050607088B
:1036B000090A0B0C0D0E0F100000000000000000A6
:1036C00001020304060708096E616E004E414E00B8
:1036D000696E6600494E4600014880470148004730
:1036E000D53400080537000802480168491C01600C
:1036F000704700BFA401002080B5FFF7F5FFFEF77B
:10370000F3FC01BD00BF00BF00BF00BFFFF77CFF9F
:10371000000000000102030400002E004300FEE749
:10372000FEE7FEE7FEE7FEE7FEE7FEE7FEE7FEE771
:10373000FEE7FEE7FEE7FEE7FEE7FEE7FEE7FEE761
:10374000FEE7F0060700127A00183700080452FF5F
:1037500001F2001A14100100001C0CF00716010001
:10376000000004000020000120026D3600082C43F8
:053770005D363C210163
:0400000508003705B3
:00000001FF
