###############################################################################
#
# IAR ELF Linker V8.30.1.114/W32 for ARM                  26/Aug/2018  14:51:44
# Copyright 2007-2018 IAR Systems AB.
#
#    Output file  =  D:\z pid_quad\EWARM\pid_quad\Exe\pid_quad.out
#    Map file     =  D:\z pid_quad\EWARM\pid_quad\List\pid_quad.map
#    Command line =  
#        -f C:\Users\b2\AppData\Local\Temp\EW46A9.tmp ("D:\z
#        pid_quad\EWARM\pid_quad\Obj\main.o" "D:\z
#        pid_quad\EWARM\pid_quad\Obj\MPU6050.o" "D:\z
#        pid_quad\EWARM\pid_quad\Obj\startup_stm32f031x6.o" "D:\z
#        pid_quad\EWARM\pid_quad\Obj\stm32f0xx_hal.o" "D:\z
#        pid_quad\EWARM\pid_quad\Obj\stm32f0xx_hal_cortex.o" "D:\z
#        pid_quad\EWARM\pid_quad\Obj\stm32f0xx_hal_dma.o" "D:\z
#        pid_quad\EWARM\pid_quad\Obj\stm32f0xx_hal_flash.o" "D:\z
#        pid_quad\EWARM\pid_quad\Obj\stm32f0xx_hal_flash_ex.o" "D:\z
#        pid_quad\EWARM\pid_quad\Obj\stm32f0xx_hal_gpio.o" "D:\z
#        pid_quad\EWARM\pid_quad\Obj\stm32f0xx_hal_i2c.o" "D:\z
#        pid_quad\EWARM\pid_quad\Obj\stm32f0xx_hal_i2c_ex.o" "D:\z
#        pid_quad\EWARM\pid_quad\Obj\stm32f0xx_hal_msp.o" "D:\z
#        pid_quad\EWARM\pid_quad\Obj\stm32f0xx_hal_pwr.o" "D:\z
#        pid_quad\EWARM\pid_quad\Obj\stm32f0xx_hal_pwr_ex.o" "D:\z
#        pid_quad\EWARM\pid_quad\Obj\stm32f0xx_hal_rcc.o" "D:\z
#        pid_quad\EWARM\pid_quad\Obj\stm32f0xx_hal_rcc_ex.o" "D:\z
#        pid_quad\EWARM\pid_quad\Obj\stm32f0xx_hal_tim.o" "D:\z
#        pid_quad\EWARM\pid_quad\Obj\stm32f0xx_hal_tim_ex.o" "D:\z
#        pid_quad\EWARM\pid_quad\Obj\stm32f0xx_hal_uart.o" "D:\z
#        pid_quad\EWARM\pid_quad\Obj\stm32f0xx_hal_uart_ex.o" "D:\z
#        pid_quad\EWARM\pid_quad\Obj\stm32f0xx_it.o" "D:\z
#        pid_quad\EWARM\pid_quad\Obj\system_stm32f0xx.o" --redirect
#        _Printf=_PrintfFull --redirect _Scanf=_ScanfFull --no_out_extension -o
#        "D:\z pid_quad\EWARM\pid_quad\Exe\pid_quad.out" --map "D:\z
#        pid_quad\EWARM\pid_quad\List\pid_quad.map" --config "D:\z
#        pid_quad\EWARM/stm32f031x6_flash.icf" --semihosting --entry
#        __iar_program_start --vfe --text_out locale)
#
###############################################################################

*******************************************************************************
*** RUNTIME MODEL ATTRIBUTES
***

CppFlavor       = *
__SystemLibrary = DLib
__dlib_version  = 6


*******************************************************************************
*** HEAP SELECTION
***

The basic heap was selected because no calls to memory allocation
functions were found in the application outside of system library
functions, and there are calls to deallocation functions in the
application.


*******************************************************************************
*** PLACEMENT SUMMARY
***

"A0":  place at 0x800'0000 { ro section .intvec };
"P1":  place in [from 0x800'0000 to 0x800'7fff] { ro };
define block CSTACK with size = 1K, alignment = 8 { };
define block HEAP with size = 512, alignment = 8 { };
"P2":  place in [from 0x2000'0000 to 0x2000'0fff] {
          rw, block CSTACK, block HEAP };
initialize by copy { rw };

  Section            Kind         Address    Size  Object
  -------            ----         -------    ----  ------
"A0":                                        0xb0
  .intvec            ro code   0x800'0000    0xb0  startup_stm32f031x6.o [1]
                             - 0x800'00b0    0xb0

"P1":                                      0x36c5
  .text              ro code   0x800'00b0  0x1006  xprintffull.o [2]
  .text              ro code   0x800'10b6    0x7e  lz77_init_single.o [4]
  .text              ro code   0x800'1134    0x8c  xlocale_c.o [2]
  .text              ro code   0x800'11c0    0x16  strchr.o [4]
  .text              ro code   0x800'11d6     0xa  xsprout.o [2]
  .text              ro code   0x800'11e0    0x48  xfail_s.o [2]
  .text              ro code   0x800'1228    0x10  strlen.o [4]
  .text              ro code   0x800'1238    0x18  memchr.o [4]
  .text              ro code   0x800'1250     0xa  xmbcurmax.o [2]
  .text              ro code   0x800'125a     0x2  startup_stm32f031x6.o [1]
  .text              ro code   0x800'125c    0x5c  ABImemcpy.o [4]
  .text              ro code   0x800'12b8    0x6a  I64DivMod.o [4]
  .text              ro code   0x800'1322   0x184  DblMul.o [3]
  .text              ro code   0x800'14a6    0x32  DblCmpLe.o [3]
  .text              ro code   0x800'14d8    0x32  DblCmpGe.o [3]
  .text              ro code   0x800'150a     0x2  startup_stm32f031x6.o [1]
  .text              ro code   0x800'150c    0x52  DblToI32.o [3]
  .text              ro code   0x800'155e     0x2  startup_stm32f031x6.o [1]
  .text              ro code   0x800'1560    0x34  IxxToDbl.o [3]
  .text              ro code   0x800'1594   0x1a8  DblAddSub.o [3]
  .text              ro code   0x800'173c    0xe0  I32DivModFast.o [4]
  .text              ro code   0x800'181c    0xc2  DblDiv.o [3]
  .text              ro code   0x800'18de     0xa  abort.o [2]
  .text              ro code   0x800'18e8     0x2  I64DivZer.o [4]
  .text              ro code   0x800'18ea     0x2  startup_stm32f031x6.o [1]
  .text              ro code   0x800'18ec     0x2  IntDivZer.o [4]
  .text              ro code   0x800'18ee     0x2  startup_stm32f031x6.o [1]
  .text              ro code   0x800'18f0    0x14  exit.o [5]
  .text              ro code   0x800'1904   0x6a4  stm32f0xx_hal_rcc.o [1]
  .text              ro code   0x800'1fa8     0xc  stm32f0xx_hal.o [1]
  .text              ro code   0x800'1fb4    0x24  stm32f0xx_hal.o [1]
  .text              ro code   0x800'1fd8   0x11a  stm32f0xx_hal_cortex.o [1]
  .text              ro code   0x800'20f2     0x2  startup_stm32f031x6.o [1]
  .text              ro code   0x800'20f4   0x634  stm32f0xx_hal_i2c.o [1]
  .text              ro code   0x800'2728    0xec  stm32f0xx_hal_msp.o [1]
  .text              ro code   0x800'2814   0x214  stm32f0xx_hal_gpio.o [1]
  .text              ro code   0x800'2a28   0x510  stm32f0xx_hal_uart.o [1]
  .text              ro code   0x800'2f38   0x1f0  main.o [1]
  .text              ro code   0x800'3128    0x20  stm32f0xx_hal.o [1]
  .text              ro code   0x800'3148    0x40  sprintf.o [2]
  .text              ro code   0x800'3188   0x130  stm32f0xx_hal_rcc_ex.o [1]
  .text              ro code   0x800'32b8    0xd0  stm32f0xx_hal_i2c_ex.o [1]
  .text              ro code   0x800'3388   0x14c  MPU6050.o [1]
  .text              ro code   0x800'34d4    0x80  system_stm32f0xx.o [1]
  .text              ro code   0x800'3554    0x3c  zero_init3.o [4]
  .rodata            const     0x800'3590    0x30  MPU6050.o [1]
  .text              ro code   0x800'35c0    0x28  data_init.o [4]
  .iar.init_table    const     0x800'35e8    0x20  - Linker created -
  .text              ro code   0x800'3608    0x1e  cmain.o [4]
  .text              ro code   0x800'3626     0x4  low_level_init.o [2]
  .text              ro code   0x800'362a     0x8  exit.o [2]
  .text              ro code   0x800'3632     0x2  startup_stm32f031x6.o [1]
  .text              ro code   0x800'3634     0xa  cexit.o [4]
  .text              ro code   0x800'363e     0x2  startup_stm32f031x6.o [1]
  .rodata            const     0x800'3640    0x1c  main.o [1]
  .text              ro code   0x800'365c    0x1c  xencoding_8859_1.o [2]
  .rodata            const     0x800'3678    0x10  main.o [1]
  .rodata            const     0x800'3688    0x10  main.o [1]
  .rodata            const     0x800'3698    0x10  stm32f0xx_hal_rcc.o [1]
  .rodata            const     0x800'36a8    0x10  stm32f0xx_hal_rcc.o [1]
  .rodata            const     0x800'36b8    0x10  system_stm32f0xx.o [1]
  .rodata            const     0x800'36c8    0x10  xprintffull.o [2]
  .text              ro code   0x800'36d8    0x10  startup_stm32f031x6.o [1]
  .text              ro code   0x800'36e8    0x10  stm32f0xx_hal.o [1]
  .text              ro code   0x800'36f8     0xc  stm32f0xx_it.o [1]
  .text              ro code   0x800'3704     0xc  cstartup_M.o [4]
  .rodata            const     0x800'3710     0x8  system_stm32f0xx.o [1]
  .rodata            const     0x800'3718     0x6  xlocale_c.o [2]
  .text              ro code   0x800'371e     0x2  startup_stm32f031x6.o [1]
  .text              ro code   0x800'3720     0x2  startup_stm32f031x6.o [1]
  .text              ro code   0x800'3722     0x2  startup_stm32f031x6.o [1]
  .text              ro code   0x800'3724     0x2  startup_stm32f031x6.o [1]
  .text              ro code   0x800'3726     0x2  startup_stm32f031x6.o [1]
  .text              ro code   0x800'3728     0x2  startup_stm32f031x6.o [1]
  .text              ro code   0x800'372a     0x2  startup_stm32f031x6.o [1]
  .text              ro code   0x800'372c     0x2  startup_stm32f031x6.o [1]
  .text              ro code   0x800'372e     0x2  startup_stm32f031x6.o [1]
  .text              ro code   0x800'3730     0x2  startup_stm32f031x6.o [1]
  .text              ro code   0x800'3732     0x2  startup_stm32f031x6.o [1]
  .text              ro code   0x800'3734     0x2  startup_stm32f031x6.o [1]
  .text              ro code   0x800'3736     0x2  startup_stm32f031x6.o [1]
  .text              ro code   0x800'3738     0x2  startup_stm32f031x6.o [1]
  .text              ro code   0x800'373a     0x2  startup_stm32f031x6.o [1]
  .text              ro code   0x800'373c     0x2  startup_stm32f031x6.o [1]
  .text              ro code   0x800'373e     0x2  startup_stm32f031x6.o [1]
  .text              ro code   0x800'3740     0x2  startup_stm32f031x6.o [1]
  .rodata            const     0x800'3742     0x0  zero_init3.o [4]
  .rodata            const     0x800'3742     0x0  lz77_init_single.o [4]
  Initializer bytes  const     0x800'3742    0x33  <for P2-1>
                             - 0x800'3775  0x36c5

"P2", part 1 of 3:                           0x84
  P2-1                        0x2000'0000    0x84  <Init block>
    .data            inited   0x2000'0000     0x4  system_stm32f0xx.o [1]
    .data            inited   0x2000'0004    0x38  xlocale_c.o [2]
    .data            inited   0x2000'003c    0x48  xlocale_c.o [2]
                            - 0x2000'0084    0x84

"P2", part 2 of 3:                          0x128
  .bss               zero     0x2000'0084    0x70  main.o [1]
  .bss               zero     0x2000'00f4    0x64  main.o [1]
  .bss               zero     0x2000'0158    0x4c  main.o [1]
  .bss               zero     0x2000'01a4     0x4  stm32f0xx_hal.o [1]
  .bss               zero     0x2000'01a8     0x4  xfail_s.o [2]
                            - 0x2000'01ac   0x128

"P2", part 3 of 3:                          0x400
  CSTACK                      0x2000'01b0   0x400  <Block>
    CSTACK           uninit   0x2000'01b0   0x400  <Block tail>
                            - 0x2000'05b0   0x400

Unused ranges:

         From           To    Size
         ----           --    ----
   0x800'3775   0x800'7fff  0x488b
  0x2000'01ac  0x2000'01af     0x4
  0x2000'05b0  0x2000'0fff   0xa50


*******************************************************************************
*** INIT TABLE
***

          Address      Size
          -------      ----
Zero (__iar_zero_init3)
    1 destination range, total size 0x128:
          0x2000'0084  0x128

Copy/lz77 (__iar_lz77_init_single3)
    1 source range, total size 0x33 (38% of destination):
           0x800'3742   0x33
    1 destination range, total size 0x84:
          0x2000'0000   0x84



*******************************************************************************
*** MODULE SUMMARY
***

    Module                  ro code  ro data  rw data
    ------                  -------  -------  -------
command line/config:
    -------------------------------------------------
    Total:

D:\z pid_quad\EWARM\pid_quad\Obj: [1]
    MPU6050.o                   332       48
    main.o                      496       60      288
    startup_stm32f031x6.o       244
    stm32f0xx_hal.o              96                 4
    stm32f0xx_hal_cortex.o      282
    stm32f0xx_hal_gpio.o        532
    stm32f0xx_hal_i2c.o       1 588
    stm32f0xx_hal_i2c_ex.o      208
    stm32f0xx_hal_msp.o         236
    stm32f0xx_hal_rcc.o       1 700       32
    stm32f0xx_hal_rcc_ex.o      304
    stm32f0xx_hal_uart.o      1 296
    stm32f0xx_it.o               12
    system_stm32f0xx.o          128       25        4
    -------------------------------------------------
    Total:                    7 454      165      296

dl6M_tlf.a: [2]
    abort.o                      10
    exit.o                        8
    low_level_init.o              4
    sprintf.o                    64
    xencoding_8859_1.o           28
    xfail_s.o                    72                 4
    xlocale_c.o                 140       56      128
    xmbcurmax.o                  10
    xprintffull.o             4 102       16
    xsprout.o                    10
    -------------------------------------------------
    Total:                    4 448       72      132

m6M_tl.a: [3]
    DblAddSub.o                 424
    DblCmpGe.o                   50
    DblCmpLe.o                   50
    DblDiv.o                    194
    DblMul.o                    388
    DblToI32.o                   82
    IxxToDbl.o                   52
    -------------------------------------------------
    Total:                    1 240

rt6M_tl.a: [4]
    ABImemcpy.o                  92
    I32DivModFast.o             224
    I64DivMod.o                 106
    I64DivZer.o                   2
    IntDivZer.o                   2
    cexit.o                      10
    cmain.o                      30
    cstartup_M.o                 12
    data_init.o                  40
    lz77_init_single.o          126
    memchr.o                     24
    strchr.o                     22
    strlen.o                     16
    zero_init3.o                 60
    -------------------------------------------------
    Total:                      766

shb_l.a: [5]
    exit.o                       20
    -------------------------------------------------
    Total:                       20

    Linker created                        32    1 024
-----------------------------------------------------
    Grand Total:             13 928      269    1 452


*******************************************************************************
*** ENTRY LIST
***

Entry                       Address   Size  Type      Object
-----                       -------   ----  ----      ------
.iar.init_table$$Base    0x800'35e8          --   Gb  - Linker created -
.iar.init_table$$Limit   0x800'3608          --   Gb  - Linker created -
?main                    0x800'3609         Code  Gb  cmain.o [4]
AHBPrescTable            0x800'36b8   0x10  Data  Gb  system_stm32f0xx.o [1]
APBPrescTable            0x800'3710    0x8  Data  Gb  system_stm32f0xx.o [1]
CSTACK$$Base            0x2000'01b0          --   Gb  - Linker created -
CSTACK$$Limit           0x2000'05b0          --   Gb  - Linker created -
CacheMore                0x800'1139   0x28  Code  Lc  xlocale_c.o [2]
HAL_GPIO_Init            0x800'2815  0x1f2  Code  Gb  stm32f0xx_hal_gpio.o [1]
HAL_GetTick              0x800'1fa9    0xc  Code  Wk  stm32f0xx_hal.o [1]
HAL_I2CEx_ConfigAnalogFilter
                         0x800'32b9   0x66  Code  Gb  stm32f0xx_hal_i2c_ex.o [1]
HAL_I2CEx_ConfigDigitalFilter
                         0x800'331f   0x62  Code  Gb  stm32f0xx_hal_i2c_ex.o [1]
HAL_I2C_Init             0x800'20f5   0xc6  Code  Gb  stm32f0xx_hal_i2c.o [1]
HAL_I2C_Master_Receive   0x800'2349  0x17e  Code  Gb  stm32f0xx_hal_i2c.o [1]
HAL_I2C_Master_Transmit
                         0x800'21bb  0x17e  Code  Gb  stm32f0xx_hal_i2c.o [1]
HAL_I2C_MspInit          0x800'2777   0x46  Code  Gb  stm32f0xx_hal_msp.o [1]
HAL_IncTick              0x800'36e9   0x10  Code  Wk  stm32f0xx_hal.o [1]
HAL_Init                 0x800'3129   0x1a  Code  Gb  stm32f0xx_hal.o [1]
HAL_InitTick             0x800'1fb5   0x24  Code  Wk  stm32f0xx_hal.o [1]
HAL_MspInit              0x800'2729   0x4e  Code  Gb  stm32f0xx_hal_msp.o [1]
HAL_NVIC_SetPriority     0x800'2097   0x14  Code  Gb  stm32f0xx_hal_cortex.o [1]
HAL_RCCEx_PeriphCLKConfig
                         0x800'3189  0x110  Code  Gb  stm32f0xx_hal_rcc_ex.o [1]
HAL_RCC_ClockConfig      0x800'1d79  0x152  Code  Gb  stm32f0xx_hal_rcc.o [1]
HAL_RCC_GetHCLKFreq      0x800'1f55    0x6  Code  Gb  stm32f0xx_hal_rcc.o [1]
HAL_RCC_GetPCLK1Freq     0x800'1f61   0x18  Code  Gb  stm32f0xx_hal_rcc.o [1]
HAL_RCC_GetSysClockFreq
                         0x800'1edd   0x72  Code  Gb  stm32f0xx_hal_rcc.o [1]
HAL_RCC_OscConfig        0x800'1905  0x45c  Code  Gb  stm32f0xx_hal_rcc.o [1]
HAL_SYSTICK_CLKSourceConfig
                         0x800'20b7   0x1e  Code  Gb  stm32f0xx_hal_cortex.o [1]
HAL_SYSTICK_Config       0x800'20ab    0xc  Code  Gb  stm32f0xx_hal_cortex.o [1]
HAL_SYSTICK_IRQHandler   0x800'20e9    0x8  Code  Gb  stm32f0xx_hal_cortex.o [1]
HAL_UART_Init            0x800'2a29   0x7e  Code  Gb  stm32f0xx_hal_uart.o [1]
HAL_UART_MspInit         0x800'27bd   0x44  Code  Gb  stm32f0xx_hal_msp.o [1]
HAL_UART_Transmit        0x800'2aad   0xec  Code  Gb  stm32f0xx_hal_uart.o [1]
I2C_Flush_TXDR           0x800'24d1   0x28  Code  Lc  stm32f0xx_hal_i2c.o [1]
I2C_IsAcknowledgeFailed
                         0x800'2671   0x80  Code  Lc  stm32f0xx_hal_i2c.o [1]
I2C_TransferConfig       0x800'26f1   0x30  Code  Lc  stm32f0xx_hal_i2c.o [1]
I2C_WaitOnFlagUntilTimeout
                         0x800'24f9   0x52  Code  Lc  stm32f0xx_hal_i2c.o [1]
I2C_WaitOnRXNEFlagUntilTimeout
                         0x800'25f5   0x7a  Code  Lc  stm32f0xx_hal_i2c.o [1]
I2C_WaitOnSTOPFlagUntilTimeout
                         0x800'25a3   0x52  Code  Lc  stm32f0xx_hal_i2c.o [1]
I2C_WaitOnTXISFlagUntilTimeout
                         0x800'254b   0x58  Code  Lc  stm32f0xx_hal_i2c.o [1]
LoadInt                  0x800'029d   0x74  Code  Lc  xprintffull.o [2]
MPU6050_GetDeviceID      0x800'33ab    0xe  Code  Lc  MPU6050.o [1]
MPU6050_GetFullScaleAccelRange
                         0x800'33cb   0x12  Code  Lc  MPU6050.o [1]
MPU6050_GetIntStatus     0x800'339b   0x10  Code  Lc  MPU6050.o [1]
MPU6050_I2C_ByteRead     0x800'3493   0x38  Code  Lc  MPU6050.o [1]
MPU6050_I2C_ByteWrite    0x800'3459   0x3a  Code  Lc  MPU6050.o [1]
MPU6050_I2C_Init         0x800'3407    0x2  Code  Lc  MPU6050.o [1]
MPU6050_SetClockSource   0x800'33b9   0x12  Code  Lc  MPU6050.o [1]
MPU6050_SetFullScaleAccelRange
                         0x800'33dd   0x14  Code  Lc  MPU6050.o [1]
MPU6050_SoftReset        0x800'33f1   0x16  Code  Lc  MPU6050.o [1]
MPU6050_TestConnection   0x800'3389   0x12  Code  Gb  MPU6050.o [1]
MPU6050_resetBits        0x800'3431   0x28  Code  Lc  MPU6050.o [1]
MPU6050_setBits          0x800'3409   0x28  Code  Lc  MPU6050.o [1]
MX_GPIO_Init             0x800'30cd   0x2c  Code  Lc  main.o [1]
MX_I2C1_Init             0x800'303f   0x5a  Code  Lc  main.o [1]
MX_USART1_UART_Init      0x800'3099   0x34  Code  Lc  main.o [1]
NVIC_SetPriority         0x800'1fd9   0x8c  Code  Lc  stm32f0xx_hal_cortex.o [1]
Region$$Table$$Base      0x800'35e8          --   Gb  - Linker created -
Region$$Table$$Limit     0x800'3608          --   Gb  - Linker created -
SysTick_Config           0x800'2065   0x32  Code  Lc  stm32f0xx_hal_cortex.o [1]
SysTick_Handler          0x800'36f9    0xc  Code  Gb  stm32f0xx_it.o [1]
SystemClock_Config       0x800'2fb1   0x8e  Code  Gb  main.o [1]
SystemCoreClock         0x2000'0000    0x4  Data  Gb  system_stm32f0xx.o [1]
SystemInit               0x800'34d5   0x52  Code  Gb  system_stm32f0xx.o [1]
UART_AdvFeatureConfig    0x800'2d33   0xde  Code  Gb  stm32f0xx_hal_uart.o [1]
UART_CheckIdleState      0x800'2e19   0x6e  Code  Gb  stm32f0xx_hal_uart.o [1]
UART_SetConfig           0x800'2b99  0x198  Code  Gb  stm32f0xx_hal_uart.o [1]
UART_WaitOnFlagUntilTimeout
                         0x800'2e95   0x68  Code  Gb  stm32f0xx_hal_uart.o [1]
_Encoding_8859_1_Mbrlen
                         0x800'366d    0x2  Code  Gb  xencoding_8859_1.o [2]
_Encoding_8859_1_Wctomb
                         0x800'365d   0x10  Code  Gb  xencoding_8859_1.o [2]
_Error_Handler           0x800'3125    0x4  Code  Gb  main.o [1]
_GenldFull               0x800'0e05  0x27c  Code  Lc  xprintffull.o [2]
_LdtobFull               0x800'0985  0x46a  Code  Lc  xprintffull.o [2]
_LitobFull               0x800'0815  0x120  Code  Lc  xprintffull.o [2]
_Locale_lconv           0x2000'0004   0x38  Data  Lc  xlocale_c.o [2]
_PrintfFull              0x800'00b1  0x1d8  Code  Gb  xprintffull.o [2]
_PutcharsFull            0x800'1081   0x34  Code  Lc  xprintffull.o [2]
_PutfldFull              0x800'0311  0x2cc  Code  Lc  xprintffull.o [2]
_PutstrFull              0x800'0749   0xc4  Code  Lc  xprintffull.o [2]
_PuttxtFull              0x800'0645  0x102  Code  Lc  xprintffull.o [2]
_SProut                  0x800'11d7    0xa  Code  Gb  xsprout.o [2]
__ICFEDIT_region_RAM_end__ {Abs}
                        0x2000'0fff         Data  Gb  <internal module>
__ICFEDIT_region_RAM_start__ {Abs}
                        0x2000'0000         Data  Gb  <internal module>
__aeabi_cdcmple          0x800'14a7         Code  Gb  DblCmpLe.o [3]
__aeabi_cdrcmple         0x800'14d9         Code  Gb  DblCmpGe.o [3]
__aeabi_d2iz             0x800'150d         Code  Gb  DblToI32.o [3]
__aeabi_d2uiz            0x800'1531         Code  Gb  DblToI32.o [3]
__aeabi_ddiv             0x800'181d         Code  Gb  DblDiv.o [3]
__aeabi_dmul             0x800'1323         Code  Gb  DblMul.o [3]
__aeabi_dsub             0x800'164f         Code  Gb  DblAddSub.o [3]
__aeabi_i2d              0x800'1581         Code  Gb  IxxToDbl.o [3]
__aeabi_idiv             0x800'1769         Code  Gb  I32DivModFast.o [4]
__aeabi_idiv0            0x800'18ed         Code  Gb  IntDivZer.o [4]
__aeabi_idivmod          0x800'1769         Code  Gb  I32DivModFast.o [4]
__aeabi_ldiv0            0x800'18e9         Code  Gb  I64DivZer.o [4]
__aeabi_memcpy           0x800'125d         Code  Gb  ABImemcpy.o [4]
__aeabi_memcpy4          0x800'1285         Code  Wk  ABImemcpy.o [4]
__aeabi_ui2d             0x800'1561         Code  Gb  IxxToDbl.o [3]
__aeabi_uidiv            0x800'176f         Code  Gb  I32DivModFast.o [4]
__aeabi_uidivmod         0x800'176f         Code  Gb  I32DivModFast.o [4]
__aeabi_uldivmod         0x800'12b9         Code  Gb  I64DivMod.o [4]
__cmain                  0x800'3609         Code  Gb  cmain.o [4]
__exit                   0x800'18f1   0x14  Code  Gb  exit.o [5]
__iar_Fail_s             0x800'11e1   0x22  Code  Gb  xfail_s.o [2]
__iar_Mbcurmax           0x800'1251    0xa  Code  Gb  xmbcurmax.o [2]
__iar_d2uiz              0x800'1535         Code  Gb  DblToI32.o [3]
__iar_data_init3         0x800'35c1   0x28  Code  Gb  data_init.o [4]
__iar_globLocale        0x2000'003c   0x48  Data  Lc  xlocale_c.o [2]
__iar_global_Locale      0x800'1135    0x4  Code  Gb  xlocale_c.o [2]
__iar_lz77_init_single3
                         0x800'10b7   0x7e  Code  Gb  lz77_init_single.o [4]
__iar_program_start      0x800'3705         Code  Gb  cstartup_M.o [4]
__iar_zero_init3         0x800'3555   0x3c  Code  Gb  zero_init3.o [4]
__low_level_init         0x800'3627    0x4  Code  Gb  low_level_init.o [2]
__vector_table           0x800'0000         Data  Gb  startup_stm32f031x6.o [1]
_call_main               0x800'3615         Code  Gb  cmain.o [4]
_exit                    0x800'3635         Code  Gb  cexit.o [4]
_gLocale_mblen           0x800'119d    0xa  Code  Gb  xlocale_c.o [2]
_gLocale_mblenInt        0x800'1161   0x34  Code  Gb  xlocale_c.o [2]
_gLocale_wctomb          0x800'11a7    0xa  Code  Gb  xlocale_c.o [2]
_gLocale_wctombInt       0x800'1195    0x8  Code  Gb  xlocale_c.o [2]
_main                    0x800'3623         Code  Gb  cmain.o [4]
abort                    0x800'18df    0xa  Code  Gb  abort.o [2]
buffer                  0x2000'00f4   0x64  Data  Gb  main.o [1]
exit                     0x800'362b    0x8  Code  Gb  exit.o [2]
hi2c1                   0x2000'0158   0x4c  Data  Gb  main.o [1]
huart1                  0x2000'0084   0x70  Data  Gb  main.o [1]
localeconv               0x800'11b3    0x4  Code  Gb  xlocale_c.o [2]
main                     0x800'2f39   0x78  Code  Gb  main.o [1]
memchr                   0x800'1239   0x18  Code  Gb  memchr.o [4]
mpu6050                  0x800'3590   0x30  Data  Gb  MPU6050.o [1]
scale                    0x800'0935   0x44  Code  Lc  xprintffull.o [2]
sec_hand                0x2000'01a8    0x4  Data  Lc  xfail_s.o [2]
sprintf                  0x800'3149   0x40  Code  Gb  sprintf.o [2]
strchr                   0x800'11c1    0x2  Code  Gb  strchr.o [4]
strlen                   0x800'1229   0x10  Code  Gb  strlen.o [4]
uwTick                  0x2000'01a4    0x4  Data  Gb  stm32f0xx_hal.o [1]


[1] = D:\z pid_quad\EWARM\pid_quad\Obj
[2] = dl6M_tlf.a
[3] = m6M_tl.a
[4] = rt6M_tl.a
[5] = shb_l.a

  13 928 bytes of readonly  code memory
     269 bytes of readonly  data memory
   1 452 bytes of readwrite data memory

Errors: none
Warnings: none
